{
  "contractName": "DigitalIdentity",
  "abi": [
    {
      "anonymous": false,
      "inputs": [
        {
          "indexed": true,
          "internalType": "address",
          "name": "owner",
          "type": "address"
        },
        {
          "indexed": false,
          "internalType": "string",
          "name": "name",
          "type": "string"
        },
        {
          "indexed": false,
          "internalType": "string",
          "name": "email",
          "type": "string"
        }
      ],
      "name": "IdentityRegistered",
      "type": "event"
    },
    {
      "anonymous": false,
      "inputs": [
        {
          "indexed": true,
          "internalType": "address",
          "name": "owner",
          "type": "address"
        },
        {
          "indexed": false,
          "internalType": "string",
          "name": "newName",
          "type": "string"
        },
        {
          "indexed": false,
          "internalType": "string",
          "name": "newEmail",
          "type": "string"
        }
      ],
      "name": "IdentityUpdated",
      "type": "event"
    },
    {
      "inputs": [
        {
          "internalType": "address",
          "name": "",
          "type": "address"
        }
      ],
      "name": "identities",
      "outputs": [
        {
          "internalType": "address",
          "name": "owner",
          "type": "address"
        },
        {
          "internalType": "string",
          "name": "name",
          "type": "string"
        },
        {
          "internalType": "string",
          "name": "email",
          "type": "string"
        },
        {
          "internalType": "bool",
          "name": "isRegistered",
          "type": "bool"
        }
      ],
      "stateMutability": "view",
      "type": "function",
      "constant": true
    },
    {
      "inputs": [
        {
          "internalType": "string",
          "name": "_name",
          "type": "string"
        },
        {
          "internalType": "string",
          "name": "_email",
          "type": "string"
        }
      ],
      "name": "registerIdentity",
      "outputs": [],
      "stateMutability": "nonpayable",
      "type": "function"
    },
    {
      "inputs": [
        {
          "internalType": "string",
          "name": "_newName",
          "type": "string"
        },
        {
          "internalType": "string",
          "name": "_newEmail",
          "type": "string"
        }
      ],
      "name": "updateIdentity",
      "outputs": [],
      "stateMutability": "nonpayable",
      "type": "function"
    },
    {
      "inputs": [
        {
          "internalType": "address",
          "name": "_owner",
          "type": "address"
        }
      ],
      "name": "getIdentity",
      "outputs": [
        {
          "internalType": "string",
          "name": "name",
          "type": "string"
        },
        {
          "internalType": "string",
          "name": "email",
          "type": "string"
        },
        {
          "internalType": "bool",
          "name": "isRegistered_",
          "type": "bool"
        }
      ],
      "stateMutability": "view",
      "type": "function",
      "constant": true
    },
    {
      "inputs": [
        {
          "internalType": "address",
          "name": "_owner",
          "type": "address"
        }
      ],
      "name": "isIdentityRegistered",
      "outputs": [
        {
          "internalType": "bool",
          "name": "",
          "type": "bool"
        }
      ],
      "stateMutability": "view",
      "type": "function",
      "constant": true
    }
  ],
  "bytecode": "0x608060405234801561001057600080fd5b50611017806100206000396000f3fe608060405234801561001057600080fd5b50600436106100575760003560e01c80630be8293f1461005c5780632fea7b8114610078578063aeabaa97146100aa578063e16efc6d146100da578063f653b81e146100f6575b600080fd5b6100766004803603810190610071919061093f565b610129565b005b610092600480360381019061008d9190610a15565b61031a565b6040516100a193929190610adc565b60405180910390f35b6100c460048036038101906100bf9190610a15565b6104a0565b6040516100d19190610b21565b60405180910390f35b6100f460048036038101906100ef919061093f565b6104f8565b005b610110600480360381019061010b9190610a15565b610678565b6040516101209493929190610b4b565b60405180910390f35b6000803373ffffffffffffffffffffffffffffffffffffffff1673ffffffffffffffffffffffffffffffffffffffff16815260200190815260200160002060030160009054906101000a900460ff16156101b8576040517f08c379a00000000000000000000000000000000000000000000000000000000081526004016101af90610c10565b60405180910390fd5b60405180608001604052803373ffffffffffffffffffffffffffffffffffffffff168152602001838152602001828152602001600115158152506000803373ffffffffffffffffffffffffffffffffffffffff1673ffffffffffffffffffffffffffffffffffffffff16815260200190815260200160002060008201518160000160006101000a81548173ffffffffffffffffffffffffffffffffffffffff021916908373ffffffffffffffffffffffffffffffffffffffff160217905550602082015181600101908161028c9190610e46565b5060408201518160020190816102a29190610e46565b5060608201518160030160006101000a81548160ff0219169083151502179055509050503373ffffffffffffffffffffffffffffffffffffffff167fdc8c7948efd57970d2239c1bd917b1aacccb1af7b9d31499bb5ed1f80a792527838360405161030e929190610f18565b60405180910390a25050565b6060806000806000808673ffffffffffffffffffffffffffffffffffffffff1673ffffffffffffffffffffffffffffffffffffffff168152602001908152602001600020905080600101816002018260030160009054906101000a900460ff1682805461038690610c5f565b80601f01602080910402602001604051908101604052809291908181526020018280546103b290610c5f565b80156103ff5780601f106103d4576101008083540402835291602001916103ff565b820191906000526020600020905b8154815290600101906020018083116103e257829003601f168201915b5050505050925081805461041290610c5f565b80601f016020809104026020016040519081016040528092919081815260200182805461043e90610c5f565b801561048b5780601f106104605761010080835404028352916020019161048b565b820191906000526020600020905b81548152906001019060200180831161046e57829003601f168201915b50505050509150935093509350509193909250565b60008060008373ffffffffffffffffffffffffffffffffffffffff1673ffffffffffffffffffffffffffffffffffffffff16815260200190815260200160002060030160009054906101000a900460ff169050919050565b6000803373ffffffffffffffffffffffffffffffffffffffff1673ffffffffffffffffffffffffffffffffffffffff16815260200190815260200160002060030160009054906101000a900460ff16610586576040517f08c379a000000000000000000000000000000000000000000000000000000000815260040161057d90610fc1565b60405180910390fd5b816000803373ffffffffffffffffffffffffffffffffffffffff1673ffffffffffffffffffffffffffffffffffffffff16815260200190815260200160002060010190816105d49190610e46565b50806000803373ffffffffffffffffffffffffffffffffffffffff1673ffffffffffffffffffffffffffffffffffffffff16815260200190815260200160002060020190816106239190610e46565b503373ffffffffffffffffffffffffffffffffffffffff167ffb96589d3b33bea42070ac9f2c42e02179f8d63c02a81c828772540ebe54bb09838360405161066c929190610f18565b60405180910390a25050565b60006020528060005260406000206000915090508060000160009054906101000a900473ffffffffffffffffffffffffffffffffffffffff16908060010180546106c190610c5f565b80601f01602080910402602001604051908101604052809291908181526020018280546106ed90610c5f565b801561073a5780601f1061070f5761010080835404028352916020019161073a565b820191906000526020600020905b81548152906001019060200180831161071d57829003601f168201915b50505050509080600201805461074f90610c5f565b80601f016020809104026020016040519081016040528092919081815260200182805461077b90610c5f565b80156107c85780601f1061079d576101008083540402835291602001916107c8565b820191906000526020600020905b8154815290600101906020018083116107ab57829003601f168201915b5050505050908060030160009054906101000a900460ff16905084565b6000604051905090565b600080fd5b600080fd5b600080fd5b600080fd5b6000601f19601f8301169050919050565b7f4e487b7100000000000000000000000000000000000000000000000000000000600052604160045260246000fd5b61084c82610803565b810181811067ffffffffffffffff8211171561086b5761086a610814565b5b80604052505050565b600061087e6107e5565b905061088a8282610843565b919050565b600067ffffffffffffffff8211156108aa576108a9610814565b5b6108b382610803565b9050602081019050919050565b82818337600083830152505050565b60006108e26108dd8461088f565b610874565b9050828152602081018484840111156108fe576108fd6107fe565b5b6109098482856108c0565b509392505050565b600082601f830112610926576109256107f9565b5b81356109368482602086016108cf565b91505092915050565b60008060408385031215610956576109556107ef565b5b600083013567ffffffffffffffff811115610974576109736107f4565b5b61098085828601610911565b925050602083013567ffffffffffffffff8111156109a1576109a06107f4565b5b6109ad85828601610911565b9150509250929050565b600073ffffffffffffffffffffffffffffffffffffffff82169050919050565b60006109e2826109b7565b9050919050565b6109f2816109d7565b81146109fd57600080fd5b50565b600081359050610a0f816109e9565b92915050565b600060208284031215610a2b57610a2a6107ef565b5b6000610a3984828501610a00565b91505092915050565b600081519050919050565b600082825260208201905092915050565b60005b83811015610a7c578082015181840152602081019050610a61565b60008484015250505050565b6000610a9382610a42565b610a9d8185610a4d565b9350610aad818560208601610a5e565b610ab681610803565b840191505092915050565b60008115159050919050565b610ad681610ac1565b82525050565b60006060820190508181036000830152610af68186610a88565b90508181036020830152610b0a8185610a88565b9050610b196040830184610acd565b949350505050565b6000602082019050610b366000830184610acd565b92915050565b610b45816109d7565b82525050565b6000608082019050610b606000830187610b3c565b8181036020830152610b728186610a88565b90508181036040830152610b868185610a88565b9050610b956060830184610acd565b95945050505050565b7f4964656e746974793a204164647265737320616c72656164792072656769737460008201527f657265642e000000000000000000000000000000000000000000000000000000602082015250565b6000610bfa602583610a4d565b9150610c0582610b9e565b604082019050919050565b60006020820190508181036000830152610c2981610bed565b9050919050565b7f4e487b7100000000000000000000000000000000000000000000000000000000600052602260045260246000fd5b60006002820490506001821680610c7757607f821691505b602082108103610c8a57610c89610c30565b5b50919050565b60008190508160005260206000209050919050565b60006020601f8301049050919050565b600082821b905092915050565b600060088302610cf27fffffffffffffffffffffffffffffffffffffffffffffffffffffffffffffffff82610cb5565b610cfc8683610cb5565b95508019841693508086168417925050509392505050565b6000819050919050565b6000819050919050565b6000610d43610d3e610d3984610d14565b610d1e565b610d14565b9050919050565b6000819050919050565b610d5d83610d28565b610d71610d6982610d4a565b848454610cc2565b825550505050565b600090565b610d86610d79565b610d91818484610d54565b505050565b5b81811015610db557610daa600082610d7e565b600181019050610d97565b5050565b601f821115610dfa57610dcb81610c90565b610dd484610ca5565b81016020851015610de3578190505b610df7610def85610ca5565b830182610d96565b50505b505050565b600082821c905092915050565b6000610e1d60001984600802610dff565b1980831691505092915050565b6000610e368383610e0c565b9150826002028217905092915050565b610e4f82610a42565b67ffffffffffffffff811115610e6857610e67610814565b5b610e728254610c5f565b610e7d828285610db9565b600060209050601f831160018114610eb05760008415610e9e578287015190505b610ea88582610e2a565b865550610f10565b601f198416610ebe86610c90565b60005b82811015610ee657848901518255600182019150602085019450602081019050610ec1565b86831015610f035784890151610eff601f891682610e0c565b8355505b6001600288020188555050505b505050505050565b60006040820190508181036000830152610f328185610a88565b90508181036020830152610f468184610a88565b90509392505050565b7f4964656e746974793a2041646472657373206e6f74207265676973746572656460008201527f2e00000000000000000000000000000000000000000000000000000000000000602082015250565b6000610fab602183610a4d565b9150610fb682610f4f565b604082019050919050565b60006020820190508181036000830152610fda81610f9e565b905091905056fea2646970667358221220c5e30d5f6e8dd69737163d3ff55a3fa66f726d58601a5245bed4e05bfb6b707664736f6c63430008120033",
  "immutableReferences": {},
  "source": "// SPDX-License-Identifier: MIT\npragma solidity ^0.8.18; // Ensure this matches your Truffle compiler settings\n\ncontract DigitalIdentity {\n    struct Identity {\n        address owner; // The Ethereum address owning this identity\n        string name;\n        string email;\n        // Add more fields as needed, e.g., profilePictureCID, etc.\n        bool isRegistered;\n    }\n\n    // Mapping from an address to their Identity struct\n    mapping(address => Identity) public identities;\n\n    // Event to log when a new identity is registered\n    event IdentityRegistered(\n        address indexed owner,\n        string name,\n        string email\n    );\n\n    // Event to log when an identity is updated\n    event IdentityUpdated(\n        address indexed owner,\n        string newName,\n        string newEmail\n    );\n\n    // Modifier to check if the caller has already registered an identity\n    modifier notAlreadyRegistered() {\n        require(!identities[msg.sender].isRegistered, \"Identity: Address already registered.\");\n        _;\n    }\n\n    // Modifier to check if the caller has a registered identity\n    modifier isRegistered() {\n        require(identities[msg.sender].isRegistered, \"Identity: Address not registered.\");\n        _;\n    }\n\n    /**\n     * @dev Registers a new digital identity for the caller (msg.sender).\n     * @param _name The name associated with the identity.\n     * @param _email The email associated with the identity.\n     */\n    function registerIdentity(string memory _name, string memory _email)\n        public\n        notAlreadyRegistered\n    {\n        identities[msg.sender] = Identity({\n            owner: msg.sender,\n            name: _name,\n            email: _email,\n            isRegistered: true\n        });\n\n        emit IdentityRegistered(msg.sender, _name, _email);\n    }\n\n    /**\n     * @dev Updates the digital identity for the caller (msg.sender).\n     * @param _newName The new name to set.\n     * @param _newEmail The new email to set.\n     */\n    function updateIdentity(string memory _newName, string memory _newEmail)\n        public\n        isRegistered\n    {\n        identities[msg.sender].name = _newName;\n        identities[msg.sender].email = _newEmail;\n\n        emit IdentityUpdated(msg.sender, _newName, _newEmail);\n    }\n\n    /**\n     * @dev Retrieves the identity details for a given owner address.\n     * @param _owner The address of the identity owner.\n     * @return name The name of the identity owner.\n     * @return email The email of the identity owner.\n     * @return isRegistered_ True if the identity is registered, false otherwise.\n     */\n    function getIdentity(address _owner)\n        public\n        view\n        returns (\n            string memory name,\n            string memory email,\n            bool isRegistered_\n        )\n    {\n        Identity storage id = identities[_owner];\n        return (id.name, id.email, id.isRegistered);\n    }\n\n    /**\n     * @dev Checks if an address has a registered identity.\n     * @param _owner The address to check.\n     * @return True if registered, false otherwise.\n     */\n    function isIdentityRegistered(address _owner) public view returns (bool) {\n        return identities[_owner].isRegistered;\n    }\n}",
  "sourcePath": "/home/kali/my-truffle-digital-identity/contracts/DigitalIdentity.sol",
  "compiler": {
    "name": "solc",
    "version": "0.8.18+commit.87f61d96.Emscripten.clang"
  },
  "schemaVersion": "3.4.16",
  "updatedAt": "2025-05-16T12:32:49.831Z",
  "networkType": "ethereum",
  "devdoc": {
    "kind": "dev",
    "methods": {
      "getIdentity(address)": {
        "details": "Retrieves the identity details for a given owner address.",
        "params": {
          "_owner": "The address of the identity owner."
        },
        "returns": {
          "email": "The email of the identity owner.",
          "isRegistered_": "True if the identity is registered, false otherwise.",
          "name": "The name of the identity owner."
        }
      },
      "isIdentityRegistered(address)": {
        "details": "Checks if an address has a registered identity.",
        "params": {
          "_owner": "The address to check."
        },
        "returns": {
          "_0": "True if registered, false otherwise."
        }
      },
      "registerIdentity(string,string)": {
        "details": "Registers a new digital identity for the caller (msg.sender).",
        "params": {
          "_email": "The email associated with the identity.",
          "_name": "The name associated with the identity."
        }
      },
      "updateIdentity(string,string)": {
        "details": "Updates the digital identity for the caller (msg.sender).",
        "params": {
          "_newEmail": "The new email to set.",
          "_newName": "The new name to set."
        }
      }
    },
    "version": 1
  },
  "userdoc": {
    "kind": "user",
    "methods": {},
    "version": 1
  }
}